:080000000202D202019A323221
:03000B0002026787
:1000130002000620043F781BE614600C14601214DF
:1000230060112403702F802753B1FD43B202C2B184
:10003300228013C37816E694F418E694017F0050E7
:10004300027F01EF700953B1FD43B202D2B12243E3
:0F005300B10253B2FD22300003D2B522C2B52252
:10006300020007D37809E694C818E694004060D3E9
:1000730008E694B818E6940B401130B20EE4780DFC
:10008300F618F67808F608F6C20322C37809E69450
:10009300B818E6940B503820B235780C06E6940273
:1000A3004002E4F6780CE614600D1460102402702C
:1000B30010E4780DF6800A780D76028004780D76C8
:1000C30001C203E47808F608F67FFAFE12028422DE
:1000D300300262781806E618700106C202C3781867
:1000E300E6940418E69400400CE4F608F678160645
:1000F300E618700106C37816E694E818E694034000
:100103000CE4F608F6780F06E618700106C3780FBC
:10011300E6943C18E69400400CE4F608F6781106E1
:10012300E618700106C37811E6943C18E694004083
:1001330004E4F608F622780DE614601314603D24F7
:1001430002704DD2B0C200C201E4781BF6802812BF
:100153000225781B7602C200D201C37811E694050A
:1001630018E694004009E4F608F67814F68004785B
:1001730014760130B31AE47814F680141202257849
:100183001B7602D200C2017814760230B302E4F681
:100193007814E6780DF622C0D075D000C000200395
:1001A3002730B22478177600087600781576000891
:1001B3007600780E760008760008760008760078D8
:1001C300087600087600D203D000D0D032C2B4C281
:1001D300B5C2B1E4780DF6780CF6780AF608F6782D
:1001E30017F608F67815F608F6780EF608F678107E
:1001F300F608F6C2037808F608F6C202D2AF221256
:1002030002CB1202AD1202BE1201D012006612011D
:10021300391200D312029B12001612005912024720
:1002230080E943B12053B2DF20B516C37816E694B4
:10023300F418E694017F0050027F01EF7003C2B00F
:1002430022D2B022C37811E6940118E69400401339
:10025300780DE6700E4387020000000000000000E6
:1002630000000022C0E0C0D075D000C000300308F9
:10027300780906E618700106D202D000D0D0D0E08B
:10028300327D597C03ED1D70011C144C70F7EF1F78
:1002930070011E144E70EA2230010C7818E620E03B
:1002A30003C2B422D2B422C2B422758900758E80EF
:1002B300758A48758CF4D28CD2A922C288D2A8D26E
:1002C300B8D28AD2AAD2BA2275B10D75B2332278C6
:0B02D3007FE4F6D8FD758120020202D6
:00000001FF
