:0700000002049E0202EA3235
:03000B000203E10C
:10001300020006538EEFD3EF9450EE941740047E04
:10002300177F50C3EF9420EE940050047E007F208E
:10003300EF24907809F6EE34E818F6C3E49FFFE462
:100043009EC2AF7838F608A6077808E6FE08E6FFF2
:0C0053007829A60608A607C2B4D2AF2286
:1000630002037FD37824E694C818E6940050022153
:10007300ACD308E694B818E6940B401130B20EE402
:100083007828F618F67823F608F6C20322C37824F4
:10009300E694B818E6940B400221AC30B20221ACCE
:1000A300782706E694044002E4F67827E6146021F4
:1000B300146061147002215A1470022175240460C3
:1000C300022190E4783AF6538EEFC2B47828F621F1
:1000D30090E47821F608F6783A7604783620B31857
:1000E300760B0876B818E6FE08E6FF12001653B141
:1000F300DF43B220D2B5801676070876D018E6FE25
:1001030008E6FF12001653B1DF43B220C2B57828C8
:1001130076018079E47821F608F6783A7601783624
:1001230020B318761308768818E6FE08E6FF120057
:100133001653B1DF43B220D2B58016760F0876A0EE
:1001430018E6FE08E6FF12001653B1DF43B220C2E1
:10015300B5782876028036E47821F608F6783A7680
:1001630002538EEFD2B443B12053B2DF7828760323
:10017300801BE47821F608F6783A7603538EEFD2A3
:10018300B453B1DF43B220C2B578287604E47830A3
:10019300F608F6782BF608F608F608F6C203782375
:1001A300F608F67FFAFE1203FE227828E614601E94
:1001B30014604214606614606C2404706FE4783A2F
:1001C300F67827F6538EEFC2B4782FF6805E1203CB
:1001D3005430B318783676070876D018E6FE08E66A
:1001E300FF12001653B1DF43B220C2B5438E10781D
:1001F3002F7601803712035430B3187836760F0800
:1002030076A018E6FE08E6FF12001653B1DF43B2EC
:1002130020C2B5438E10782F7602801012035478D3
:100223002F76038007120354782F7604782FE6780D
:1002330028F62230015A783306E618700106C20107
:10024300C37833E6940418E69400400CE4F608F609
:10025300783106E618700106C37831E694E818E6AB
:1002630094034014E4F608F6782206E618700106B3
:10027300782C06E618700106C3782CE6943C18E641
:100283009400400CE4F608F6782E06E61870010692
:1002930022783AE614601414601314602214602860
:1002A3002404704243B10253B2FD22802853B1FDAE
:1002B30043B2027831E620E003D2B122C2B1225325
:1002C300B1FD43B202D2B122782CE620E01078319E
:1002D300E65407700953B1FD43B202C2B12243B1E0
:1002E3000253B2FDD2B122C0D075D000C0002003AA
:1002F3002730B2247832760008760078307600080A
:100303007600782B76000876000876000876007869
:10031300237600087600D203D000D0D032E47828C8
:10032300F67827F67825F608F67832F608F6783068
:10033300F608F6782BF608F6782DF608F6C2B443DD
:10034300B12053B2DFC2037823F608F6C201D2AF5D
:10035300227821E6FE08E6FF7C007D14120449EDB5
:100363004C7016C37831E694F418E694017F00507C
:10037300027F01EF7003C2B022D2B022C0E0C0D02E
:1003830075D000C000B2B430B40478298002783844
:10039300E6F5D608E6F5D7D000D0D0D0E032120487
:1003A3003B12042A1204151204421203201200669F
:1003B3001201AD1202361202941203C180EFC37808
:1003C3002EE6940118E6940040137828E6700E4355
:1003D3008702000000000000000000000022C0E0CF
:1003E300C0D075D000C000300308782406E618702A
:1003F3000106D201D000D0D0D0E0327D597C03ED8C
:100403001D70011C144C70F7EF1F70011E144E7009
:10041300EA22538EEF43AF04438E04538EF7E4F581
:10042300D6F5D7438E1022758900758E80758A485C
:10043300758CF4D28CD2A92275B10C75B23322C259
:1004430088D2A8D2B822BC000BBE0029EF8DF0845D
:10045300FFADF022E4CCF875F008EF2FFFEE33FE8A
:10046300EC33FCEE9DEC984005FCEE9DFE0FD5F0C1
:10047300E9E4CEFD22EDF8F5F0EE8420D21CFEADCA
:10048300F075F008EF2FFFED33FD4007985006D5C8
:10049300F0F222C398FD0FD5F0EA22787FE4F6D874
:0704A300FD75813A0203A17F
:00000001FF
