:080000000202CD02018D323233
:03000B0002025A94
:1000130002000620043F781BE614600C14601214DF
:1000230060112403702F802753B1FD43B202C2B184
:10003300228013C37816E694F418E694017F0050E7
:10004300027F01EF700953B1FD43B202D2B12243E3
:0D005300B10253B2FD2275B10575B23B221A
:10006300020007D37809E694C818E694004060D3E9
:1000730008E694B818E6940B401130B20EE4780DFC
:10008300F618F67808F608F6C20322C37809E69450
:10009300B818E6940B503820B235780C06E6940273
:1000A3004002E4F6780CE614600D1460102402702C
:1000B30010E4780DF6800A780D76028004780D76C8
:1000C30001C203E47808F608F67FFAFE12027722EB
:1000D300300262781806E618700106C202C3781867
:1000E300E6940418E69400400CE4F608F678160645
:1000F300E618700106C37816E694E818E694034000
:100103000CE4F608F6780F06E618700106C3780FBC
:10011300E6943C18E69400400CE4F608F6781106E1
:10012300E618700106C37811E6943C18E694004083
:1001330004E4F608F622780DE61460121460352400
:10014300027040D2B0C200C201E4781B801A1202CE
:1001530018781B7603C200D201C37811E694051800
:10016300E694004009E4F608F67814F6801578144E
:100173007601800F120218781B7602D200C2017832
:100183001476027814E6780DF622C0D075D000C03C
:100193000020032730B224781776000876007815FC
:1001A3007600087600780E76000876000876000858
:1001B300760078087600087600D203D000D0D032DB
:1001C300C2B4C2B5C2B1E4780DF6780CF6780AF67B
:1001D30008F67817F608F67815F608F6780EF60896
:1001E300F67810F608F6C2037808F608F6C202D2CB
:1001F300AF221200591202A01202C01201C3120050
:10020300661201391200D312028E1200161202B1C5
:1002130012023A80E943B12053B2DF20B516C37806
:1002230016E694F418E694017F0050027F01EF7004
:1002330003C2B022D2B022C37811E6940118E69427
:10024300004013780DE6700E4387020000000000A3
:1002530000000000000022C0E0C0D075D000C00044
:10026300300308780906E618700106D202D000D0E0
:10027300D0D0E0327D597C03ED1D70011C144C700D
:10028300F7EF1F70011E144E70EA2230010C78182C
:10029300E620E003C2B422D2B422C2B4227589009C
:1002A300758E80758A48758CF4D28CD2A922300061
:1002B30004D2B58002C2B530B302C2B522C288D21D
:1002C300A8D2B8D28AD2AAD2BA22787FE4F6D8FDCD
:0602D3007581200201F517
:00000001FF
