:0700000002039A0201FD3228
:03000B00020300ED
:10001300020006D37809E694C818E69400403F78B6
:100023000C06E6D394034002E4F6780CE614601061
:1000330014601314601624037016E4780DF6801010
:10004300780D7601800A780D76048004780D7602A7
:0F005300C203E47808F608F67FFAFE12031D22B6
:10006300020357780DE6B407004002216290007640
:1000730025E0730184019201BA01DE01A621022168
:1000830038D2B0C200E4781AF6C20118F6215F1222
:1000930002BE78197601E408F6C201D2007812761E
:1000A3000121621202BE78197602E408F6C201D277
:1000B300007812760421621202BE7819760208765D
:1000C30002D201D200C37811E6940518E6940078B1
:1000D30012400476032162760221621202BE78196D
:1000E3007602087602C201D200C37811E6940A1898
:1000F300E6940078124004760580647603806012EB
:1001030002BE78197602E408F6C201D200C3781160
:10011300E6940F18E694004016E47817F608F6788C
:1001230013F608F6780EF608F6781276068030781D
:10013300127605802AD2047FFA7E0012031DC204C0
:100143007FFA7E0012031DD2047FFA7E0012031D84
:10015300C204C2B27FF47E0112031DE47812F67862
:1001630012E6780DF622300252781606E618700170
:1001730006C202C37816E6940418E69400400CE421
:10018300F608F6781406E618700106C37814E694A8
:10019300E818E69403400CE4F608F6780F06E61830
:1001A300700106C3780FE6943C18E69400400CE413
:1001B300F608F6781106E6187001062220043A784C
:1001C30019E614601114601714601D2403702A4388
:1001D300B10253B2FD2253B1FD43B202C2B1225365
:1001E300B1FD43B202D2B12253B1FD43B202780F43
:1001F300E620E003D2B122C2B122C0D075D000C044
:100203000020032730B2247815760008760078138F
:100213007600087600780E760008760008760008E7
:10022300760078087600087600D203D000D0D0326A
:10023300C2B4E4780DF6780CF6780AF608F6781767
:10024300F608F67815F608F67813F608F6780EF63B
:1002530008F67810F608F6C2037808F608F6C20224
:10026300D2AF2212038C12034612037512039312A8
:10027300023312001612006612016912036612039A
:10028300341201BF1203821202921202E080E37859
:100293001AE614600A1460202402701EC2B3227886
:1002A3000FE6540324FE600A14600A2402700BD282
:1002B300B322D2B322C2B322D2B32243B12053B268
:1002C300DF20B516C37814E694F418E694017F0092
:1002D30050027F01EF7003C2B022D2B022C3781163
:1002E300E6940118E694004013780DE6700E4387F8
:1002F30002000000000000000000000022C0E0C077
:10030300D075D000C000300308780906E6187001E4
:1003130006D202D000D0D0D0E0327D597C03ED1D4F
:1003230070011C144C70F7EF1F70011E144E70EA1D
:100333002230010C7816E620E003C2B422D2B422A4
:10034300C2B422758900758E80758A48758CF4D283
:100353008CD2A92230040953B1FB43B204B2B232A6
:10036300C2B23253B1DF53B2DF300003D2B522C27F
:10037300B52275D75A75D6FF438E1043AF0422209A
:10038300040643B10453B2FB2275B10575B21B22B7
:10039300C288D2A8D2B822787FE4F6D8FD7581202E
:0303A300020266ED
:00000001FF
