:0E0000000203070201A4B2B3322232020278D8
:1000130002000A200547781BE614600C14600B14D9
:10002300601924037037802F80247816E620E002BD
:10003300801C53B1FD43B202C2B122C37816E694C9
:10004300F418E694017F0050027F01EF700953B169
:0E005300FD43B202D2B12243B10253B2FD22EC
:10006300020006D37809E694C818E694004072D3D8
:1000730008E694B818E6940B401330B210E4780DF8
:10008300F618F67808F608F6C204C20122C3780906
:10009300E694B818E6940B504820B245780C06E66F
:1000A30094024002E4F6780CE614601014601724FE
:1000B30002701BE4780DF6781BF68012780D760239
:1000C300781B76028008780D7601781B7601C2A82A
:1000D300C204C2017FC87E001202A3E47808F608B6
:1000E300F622300362781806E618700106C203C3CD
:1000F3007818E6940418E69400400CE4F608F678C1
:100103001606E618700106C37816E694E818E69416
:1001130003400CE4F608F6780F06E618700106C3F0
:10012300780FE6943C18E69400400CE4F608F67861
:100133001106E618700106C37811E6943C18E6949C
:10014300004004E4F608F622780DE6146013146008
:100153003924027045D2B0C200C202E4780CF680A2
:1001630024120009C200D202C37811E6940518E6EE
:1001730094004009E4F608F67814F68004781476BF
:100183000130B516E47814F68010120009D200D2BB
:10019300027814760230B502E4F67814E6780DF6A8
:1001A30022C0D075D000C00020042930B2267817B1
:1001B300760008760078157600087600780E7600CB
:1001C300087600087600087600780876000876003E
:1001D300D204D201D000D0D0321203001202BA12DC
:1001E30002F61202DC120212200202C2B33001171D
:1001F30043B10253B2FD12006612014B1202E9121F
:1002030002CB120246D2A81200E512001680D9C210
:10021300B3C2B4C2B1E4780DF6780CF6780AF608E6
:10022300F67817F608F67815F608F6780EF608F657
:100233007810F608F6C204C2017808F608F6C2037D
:10024300D2AF22C37811E6940118E69400402578D2
:100253000DE67020C2B3C2B443B10253B2FDD2B0B3
:10026300780CF653AFF4438702000000000000004F
:100273000000000022C0E0C0D075D000C0003004F0
:1002830016780906E618700106D37809E6948818EB
:10029300E694134002C201D203D000D0D0D0E032A2
:1002A3007D597C03ED1D70011C144C70F7EF1F701A
:1002B300011E144E70EA22758900758E80758A4876
:1002C300758CF4D28CD2A92253B1EF43B210300013
:1002D30005C2A8D2B422C2B422C288D2A8D2B8D24C
:1002E3008AD2AAD2BA2230020443AF042253AFFB0C
:1002F300C2B32275D7CB75D6FF438E142275B127AF
:1003030075B21922787FE4F6D8FD7581200201DCED
:00000001FF
