:0700000002035C0201A732BC
:03000B000202CC22
:10001300020006D37809E694C818E69400403678BF
:100023000C06E6D394024002E4F6780CE614600D65
:1000330014601024027010E4780DF6800A780D76AF
:10004300018004780D7602C203E47808F608F67F8F
:10005300FAFE1202E92220040643B10453B2FB2242
:10006300020323780DE614602214603314605414E1
:100073006075147002212024056002214AD2B0C2A7
:1000830000E4781AF6C20118F621471202687819BB
:100093007601E408F6C201D20078127601214A12F1
:1000A300026878197602087602D201D200C3781169
:1000B300E6940518E69400781240047603214A7604
:1000C30002214A12026878197602087602C201D226
:1000D30000C37811E6940A18E69400781240047677
:1000E3000480647603806012026878197602E4085B
:1000F300F6C201D200C37811E6940F18E6940040CB
:1001030016E47817F608F67813F608F6780EF6086C
:10011300F678127605803078127604802AD2047F2E
:10012300FA7E001202E9C2047FFA7E001202E9D2CB
:10013300047FFA7E001202E9C204C2B27FF47E0198
:100143001202E9E47812F67812E6780DF62230020C
:1001530052781606E618700106C202C37816E694B2
:100163000418E69400400CE4F608F6781406E61842
:10017300700106C37814E694E818E69403400CE48F
:10018300F608F6780F06E618700106C3780FE694B2
:100193003C18E69400400CE4F608F6781106E618DD
:1001A30070010622C0D075D000C00020032730B2F2
:1001B30024781576000876007813760008760078A0
:1001C3000E76000876000876000876007808760038
:1001D300087600D203D000D0D032C2B4E4780DF652
:1001E300780CF6780AF608F67817F608F67815F616
:1001F30008F67813F608F6780EF608F67810F6087F
:10020300F6C2037808F608F6C202D2AF2212034EF2
:100213001203121203411203551201DD12001612CA
:10022300006612015112033212030012028A1200F5
:100233005912023C1202AC80E3781AE614600A14E5
:1002430060202402701EC2B322780FE6540324FEFA
:10025300600A14600A2402700BD2B322D2B322C202
:10026300B322D2B32243B12053B2DF20B516C378F1
:1002730014E694F418E694017F0050027F01EF70B6
:1002830003C2B022D2B02220041E7819E614600AF9
:1002930014600A24027011D2B122C2B122780FE68F
:1002A30020E003D2B122C2B122C37811E69401182F
:1002B300E694004013780DE6700E438702000000B9
:1002C300000000000000000022C0E0C0D075D00094
:1002D300C000300308780906E618700106D202D080
:1002E30000D0D0D0E0327D597C03ED1D70011C1489
:1002F3004C70F7EF1F70011E144E70EA2230010C90
:100303007816E620E003C2B422D2B422C2B4227526
:100313008900758E80758A48758CF4D28CD2A92297
:1003230030040953B1FB43B204B2B232C2B2325306
:10033300B1DF53B2DF300003D2B522C2B52275D785
:100343005A75D6FF438E1043AF042275B10575B2BB
:100353001B22C288D2A8D2B822787FE4F6D8FD75D2
:050363008120020210E0
:00000001FF
