:0900000002030402020C22323258
:03000B0002029658
:1000130002000720063F781DE614600C14600B14E1
:1000230060112403702F8027801C53B1FD43B2025B
:10003300C2B122C37818E694F418E694017F005005
:10004300027F01EF700953B1FD43B202D2B12243E3
:0D005300B10253B2FD2275B10D75B233221A
:10006300020008D37815E6940518E694004008C208
:1000730001C202E4F608F6D37809E694C818E694B8
:100083000050022108D308E694B818E6940B4013F5
:1000930030B210C201E4780DF618F67808F608F6C7
:1000A300C20522C37809E694B818E6940B5056208B
:1000B300B253300105780C068002D201780CE67049
:1000C300053001027601780CE6D394024002E4F68F
:1000D300780CE614600D14601024027010E4780D9F
:1000E300F6800A780D76028004780D7601D202E458
:1000F3007814F608F6C2A8C2057FC8FE1202B3E45C
:100103007808F608F622300462781A06E6187001B9
:1001130006C204C3781AE6940418E69400400CE47B
:10012300F608F6781806E618700106C37818E69400
:10013300E818E69403400CE4F608F6780F06E61890
:10014300700106C3780FE6943C18E69400400CE473
:10015300F608F6781106E618700106C37811E694DE
:100163003C18E694004004E4F608F622780DE61401
:10017300601614604024027050D2B0C200C203E47F
:10018300780CF6781DF68028120006781D7602C2D8
:1001930000D203C37811E6940518E694004009E4FD
:1001A300F608F67816F680047816760130B31AE46A
:1001B3007816F68014120006781D7602D200C20368
:1001C3007816760230B302E4F67816E6780DF62256
:1001D300C2B4C2B5C2B1E4780DF6780CF6780AF66B
:1001E30008F6C2027814F608F67819F608F67817B6
:1001F300F608F6780EF608F67810F608F6C20578D3
:1002030008F608F6C204D2AF22C0D075D000C000F1
:1002130020052730B22478197600087600781776FF
:1002230000087600780E76000876000876000876D7
:100233000078087600087600D205D000D0D032C30B
:100243007811E6940118E694004022780DE6701DBB
:10025300C2B4C2B543B10253B2FDD2B0780CF64377
:1002630087020000000000000000000000221200CE
:10027300591202CA1202EC1201D312006612016F64
:100283001201091202F91200161202DB120242D203
:10029300A880E7C0E0C0D075D000C0003005087862
:1002A3000906E618700106D204D000D0D0D0E0329F
:1002B3007D597C03ED1D70011C144C70F7EF1F700A
:1002C300011E144E70EA22758900758E80758A4866
:1002D300758CF4D28CD2A92253B1DF43B220300003
:1002E30005C2A8D2B522C2B522C288D2A8D2B8D23A
:1002F3008AD2AAD2BA22300305C2A8D2B422C2B487
:0D03030022787FE4F6D8FD7581200202719A
:00000001FF
