:0E0000000202F50201A4B2B332223202026CF7
:1000130002000A20053F781BE614600C14600B14E1
:1000230060112403702F8027801C53B1FD43B2025B
:10003300C2B122C37816E694F418E694017F005007
:10004300027F01EF700953B1FD43B202D2B12243E3
:0D005300B10253B2FD2275B14575B21B22FA
:10006300020006D37809E694C818E694004067D3E3
:1000730008E694B818E6940B401330B210E4780DF8
:10008300F618F67808F608F6C204C20122C3780906
:10009300E694B818E6940B503D20B23A780C06E685
:1000A30094024002E4F6780CE614600D1460102408
:1000B300027010E4780DF6800A780D7602800478D9
:1000C3000D7601C2A8C204C2017FC87E0012029746
:1000D300E47808F608F622300362781806E618700A
:1000E3000106C203C37818E6940418E69400400C92
:1000F300E4F608F6781606E618700106C37816E6E5
:1001030094E818E69403400CE4F608F6780F06E644
:1001130018700106C3780FE6943C18E69400400C6F
:10012300E4F608F6781106E618700106C37811E6BE
:10013300943C18E694004004E4F608F622780DE6B1
:1001430014601614604024027050D2B0C200C20280
:10015300E4780CF6781BF68028120009781B7601E8
:10016300C200D202C37811E6940518E69400400950
:10017300E4F608F67814F680047814760130B51A9C
:10018300E47814F68014120009781B7602D200C2B8
:10019300027814760230B502E4F67814E6780DF6A8
:1001A30022C0D075D000C00020042930B2267817B1
:1001B300760008760078157600087600780E7600CB
:1001C300087600087600087600780876000876003E
:1001D300D204D201D000D0D032C2B3C2B4C2B1E48F
:1001E300780DF6780CF6780AF608F67817F608F61E
:1001F3007815F608F6780EF608F67810F608F6C2C3
:1002030004C2017808F608F6C203D2AF22C37811FC
:10021300E6940118E694004022780DE6701DC2B3FF
:10022300C2B443B10253B2FDD2B0780CF643870295
:10023300000000000000000000000022120059121C
:1002430002AE1202D01202DD1201DCD2B43001146C
:100253001200661201401202EA1200161202BF12C5
:100263000210D2A81200DA80E4C0E0C0D075D0003A
:10027300C000300416780906E618700106D3780921
:10028300E6948818E694134002C201D203D000D04A
:10029300D0D0E0327DC47C09ED1D70011C144C707C
:1002A300F7EF1F70011E144E70EA22758900758ED8
:1002B30080758AD2758CDDD28CD2A92253B1EF43DB
:1002C300B210300005C2A8D2B422C2B42275D766D8
:1002D30075D6FF438E1443AF0422C288D2A8D2B886
:1002E300D28AD2AAD2BA22300205C2A8D2B322C27B
:0E02F300B322787FE4F6D8FD75812002023F29
:00000001FF
