:080000000202E202019E32320D
:03000B0002027A74
:1000130002000620043F781BE614600C14600B14E6
:1000230060112403702F8027801C53B1FD43B2025B
:10003300C2B122C37816E694F418E694017F005007
:10004300027F01EF700953B1FD43B202D2B12243E3
:0F005300B10253B2FD22300103D2B422C2B42253
:10006300020007D37809E694C818E694004061D3E8
:1000730008E694B818E6940B401130B20EE4780DFC
:10008300F618F67808F608F6C20322C37809E69450
:10009300B818E6940B503920B236780C06E6940271
:1000A3004002E4F6780CE614600D1460102402702C
:1000B30010E4780DF6800A780D76028004780D76C8
:1000C30001C2037FC87E00120297E47808F608F69F
:1000D30022300262781806E618700106C202C3785D
:1000E30018E6940418E69400400CE4F608F6781633
:1000F30006E618700106C37816E694E818E694033A
:10010300400CE4F608F6780F06E618700106C3788B
:100113000FE6943C18E69400400CE4F608F67811D8
:1001230006E618700106C37811E6943C18E69400BD
:100133004004E4F608F622780DE6146016146040D5
:1001430024027050D2B0C200C201E4780CF6781BCE
:10015300F68028120258781B7602C200D201C378B7
:1001630011E6940518E694004009E4F608F67814BD
:10017300F680047814760130B31AE47814F6801408
:10018300120258781B7602D200C20178147602302C
:10019300B302E4F67814E6780DF622C0D075D000E9
:1001A300C00020032730B224781776000876007841
:1001B300157600087600780E76000876000876003B
:1001C30008760078087600087600D203D000D0D0F5
:1001D30032C2B4C2B5C2B1E4780DF6780CF6780A2F
:1001E300F608F67817F608F67815F608F6780EF698
:1001F30008F67810F608F6C2037808F608F6C20285
:10020300D2AF22C37811E6940118E6940040227815
:100213000DE6701DC2B4C2B543B10253B2FDD2B0F4
:10022300780CF64387020000000000000000000085
:1002330000221202DB1202AE1202CE1201D412000D
:100243006612013A1200D41200591200161202BFAC
:1002530012020680E943B12053B2DF20B516C378FA
:1002630016E694F418E694017F0050027F01EF70C4
:1002730003C2B022D2B022C0E0C0D075D000C0000B
:10028300300308780906E618700106D202D000D0C0
:10029300D0D0E0327D597C03ED1D70011C144C70ED
:1002A300F7EF1F70011E144E70EA22758900758ED8
:1002B30080758A48758CF4D28CD2A92253B1DF435E
:1002C300B220300003D2B522C2B522C288D2A8D24E
:1002D300B8D28AD2AAD2BA2275B10D75B2332278B6
:0B02E3007FE4F6D8FD75812002023593
:00000001FF
