:0600000002055B02001680
:03000B000204806C
:10001300020363C0D075D000C00020082930B22687
:100023007817760008760078157600087600780E43
:100033007600087600087600087600D20378097601
:1000430000087600D208D000D0D032758900758EB2
:0C00530080758A48758CF4D28CD2A922EA
:100063000204B4780DE6B40800400221A0900076A3
:1000730025E0730186019601AA01CE01F52119211C
:100083003D2173D2B0C201E4781DF6C2067808762A
:1000930001219A12045E781C7601E408F6C206D2A6
:1000A300017814760121A012045E781C760208768A
:1000B30002C206C201C37811E6943B18E6940078A5
:1000C300144004760321A0760221A0781C7602C294
:1000D30006C201D37811E6940518E694005009127C
:1000E300045E781D76028004E4781DF678147603A6
:1000F30021A012045E781C7601087602D206C201A2
:10010300C37811E6940518E6940078144004760544
:1001130021A0760421A012045E781C7603087602DF
:10012300C206C201C37811E6940A18E69400781453
:100133004004760680677605806312045E781C7639
:1001430003087602C206D201C37811E6940F18E6BB
:1001530094004016E4781AF608F67815F608F6784F
:100163000EF608F678147607803378147606802D19
:10017300D2097FFA7E0012049DC2097FFA7E001223
:10018300049DD2097FFA7E0012049DC209C2B27F88
:10019300F47E0112049DE4781CF67814F67814E6D4
:1001A300780DF622D37813E6940518E694004008F8
:1001B300C200C202E4F608F6D3780AE694C818E649
:1001C300940050024155D308E694B818E6940B40C6
:1001D3001730B214E4780DF6C2007819F67809F6F0
:1001E30008F6C203C208806AC3780AE694B818E620
:1001F300940B505E20B25B3000057819068002D262
:10020300007819E6700530000276017819E6D39478
:10021300034002E4F67819E61460101460131460C6
:100223001624037016E4780DF68010780D7601809D
:100233000A780D76048004780D7602D202E47812EF
:10024300F608F67809F608F6C203C2087FFAFE122A
:10025300049D7815E6FE08E6FF7C007D6412050622
:10026300C3ED940AEC94005024C2B343B10853B2D3
:10027300F77815E6FE08E6FF7C007D64120506D3D9
:10028300ED9405EC94004017D2AAD2A822C2AAC2C8
:10029300A853B1F743B208300503D2B322C2B32245
:1002A30030076D781806E618700106C207C3781880
:1002B300E6940418E69400400CE4F608F678160673
:1002C300E618700106C37816E694E818E69403402E
:1002D30017E4F608F6300208781306E618700106EC
:1002E300780F06E618700106C3780FE6943C18E60B
:1002F3009400400CE4F608F6781106E6187001063F
:10030300C37811E6943C18E694004004E4F608F63A
:100313002220094B781CE614600F14600E1460143D
:1003230014601B240470388030802553B1FD43B220
:1003330002D2B122780FE620E0028014801B7817E6
:10034300E65401FE08E64E7010780FE65403700978
:1003530053B1FD43B202C2B12243B10253B2FD22F3
:10036300C0D075D000C00020082930B32678177696
:100373000008760078157600087600780E76000877
:100383007600087600087600D204780976000876AD
:1003930000D208D000D0D032C2B4E4780DF6781978
:1003A300F6780BF608F6781AF608F67817F608F6D4
:1003B3007815F608F6780EF608F67810F608F6C201
:1003C30002C200C2087809F608F6C207D2AF22C3F8
:1003D3007811E6940118E694004027780DE6702220
:1003E300D2AAD2A8C2B2C2B343B10853B2F743B13F
:1003F3000453B2FB4387020000000000000000002A
:100403000000221204FF12004E1204D21204DF1263
:10041300039B1201A71200661202A31204C3120463
:10042300F61203141204EC1204321203D280E3789E
:100433001DE614600A1460202402701EC20522788F
:100443000FE6540324FE600A14600A2402700BD2E0
:100453000522D20522C20522D2052243B12053B27E
:10046300DF20B516C37816E694F418E694017F00EE
:1004730050027F01EF7003C2B022D2B022C0E0C0AD
:10048300D075D000C000300808780A06E61870015D
:1004930006D207D000D0D0D0E0327D597C03ED1DC9
:1004A30070011C144C70F7EF1F70011E144E70EA9C
:1004B3002230090953B1FB43B204B2B232C2B232A1
:1004C30053B1DF53B2DF300103D2B522C2B5227577
:1004D300D75A75D6FF438E1043AF0422C288D2A8E1
:1004E300D2B8C28AD2AAD2BA2220090643B104538F
:1004F300B2FB22300603D2B422C2B42275B10D7509
:10050300B21322BC000BBE0029EF8DF084FFADF0C7
:1005130022E4CCF875F008EF2FFFEE33FEEC33FC4A
:10052300EE9DEC984005FCEE9DFE0FD5F0E9E4CE80
:10053300FD22EDF8F5F0EE8420D21CFEADF075F04F
:1005430008EF2FFFED33FD4007985006D5F0F22258
:10055300C398FD0FD5F0EA22787FE4F6D8FD7581C4
:040563002102040667
:00000001FF
