:0700000002038902025732DE
:03000B00020308E5
:10001300020325D37809E694C818E69400402C78A7
:100023000C06E6D394014002E4F6780CE61460096A
:1000330004700AE4780DF68004780D7601C203E4B7
:100043007808F608F67FFAFE1203402275890075D8
:0D0053008E80758A48758CF4D28CD2A9225B
:10006300020006780DE614602514603C14605914F0
:10007300700201F7147002210524056002213BD2AE
:10008300B0E4781AF6C20118F67812F6213B120290
:10009300E678197602087601D201C37811E6940155
:1000A30018E69400401C21341202E67819760208FF
:1000B3007601D201C37811E6943B18E6940040021E
:1000C300806F7812760280701202E678197604083F
:1000D3007601C201C37811E6940518E69400400E38
:1000E300E47819F67810F608F6087604804A781250
:1000F30076038044C201E47819F608F67812760490
:100103008036C20178197602E408F6C3780FE694C4
:100113000118E69400400AE47819F6781276048010
:100123000478127605C37811E694BC18E69400406F
:1001330007E4F608F60876037812E6780DF622301F
:100143000262781606E618700106C202C37816E644
:10015300940418E69400400CE4F608F6781406E6D6
:1001630018700106C37814E694E818E69403400C6B
:10017300E4F608F6780F06E618700106C3780FE672
:10018300943C18E69400400CE4F608F6781106E671
:1001930018700106C37811E6943C18E694004004F5
:1001A300E4F608F622C37811E6940118E6940040B9
:1001B30013780DE6700E4387020000000000000074
:1001C30000000000780DE66404703953B1F743B2C0
:1001D30008D2B37F0AFE12034043B10853B2F74378
:1001E30087020000000000000000000000E4781314
:1001F300F608F6780EF608F6780D760553B1F74350
:10020300B208D2B32220044B7819E614600F1460AD
:100213000E14600D14601B24047038803080088035
:1002230023780FE620E00953B1FD43B202C2B122A5
:10023300801B7815E65401FE08E64E7010780FE631
:100243005403700953B1FD43B202D2B12243B10248
:1002530053B2FD22C0D075D000C00020032730B2B6
:1002630024781576000876007813760008760078EF
:100273000E76000876000876000876007808760087
:10028300087600D203D000D0D032C2B4D2B3C2B504
:10029300C2B1E4780DF6780CF6780AF608F6C200D7
:1002A3007815F608F67813F608F6780EF608F67859
:1002B30010F608F6C2037808F608F6C202D2AF2297
:1002C30012038212004F12036C12028D12001612D7
:1002D3000066120142120379120208120357120137
:1002E300A880E943B12053B2DF20B516C37814E6E2
:1002F30094F418E694017F0050027F01EF7003C26B
:10030300B022D2B022C0E0C0D075D000C00030030C
:1003130008780906E618700106D202D000D0D0D0C2
:10032300E032C0E0C0D075D000C00020B30878111F
:1003330006E618700106D000D0D0D0E0327D597C9B
:1003430003ED1D70011C144C70F7EF1F70011E1498
:100353004E70EA2253B1DF43B220781AE6146006E6
:10036300047005C2B522D2B522C288D2A8D2B8D2AF
:100373008AD2AAD2BA22300103D2B422C2B42275DD
:10038300B10575B23B22787FE4F6D8FD7581200272
:0203930002C3A3
:00000001FF
