:080000000203340201B33232A5
:03000B000202836B
:10001300020006781BE61460131460191460282488
:1000230003702CC2B143B10253B2FD2253B1FD435D
:10003300B202C2B12253B1FD43B2027816E620E008
:1000430003D2B122C2B12253B1FD43B202D2B122D3
:0D00530075D75A75D6FF438E1043AF0422B7
:10006300020007D3780BE694C818E6940050020107
:10007300F9D308E694B818E6940B401130B20EE4B5
:10008300780FF618F6780AF608F6C20322C3780B3F
:10009300E694B818E6940B505D20B25A780E06E643
:1000A30094024002E4F6780EE614601014601D24F6
:1000B300027027E4781BF6780FF6801EE47808F6C2
:1000C30008F6781B7601780F7601800EE47808F63F
:1000D30008F6781B7602780F7602E47815F608F6B0
:1000E3007810F608F608F608F6C203780AF608F65A
:1000F3007FFAFE1202A02230015A781806E6187021
:100103000106C201C37818E6940418E69400400C73
:10011300E4F608F6781606E618700106C37816E6C4
:1001230094E818E694034014E4F608F6780906E622
:1001330018700106781106E618700106C37811E6F7
:10014300943C18E69400400CE4F608F6781306E6AF
:100153001870010622780FE6146014146037240225
:100163007047C2B3E4781BF6780EF6C2008031788C
:1001730013E620E010C37811E6941E18E6940050AD
:1001830004D2B38002C2B3D20030B403E480117846
:100193001476018014120215D2B3D20030B406E4EF
:1001A3007814F68004781476027814E6780FF62231
:1001B300C0D075D000C00020032730B22478177652
:1001C3000008760078157600087600781076000827
:1001D3007600087600087600780A7600087600D262
:1001E30003D000D0D032E4780FF6780EF6780CF610
:1001F30008F67817F608F67815F608F67810F60874
:10020300F67812F608F6C203780AF608F6C201D2A7
:10021300AF227808E6FE08E6FF7C007D141202DFB9
:10022300ED4C7016C37816E694F418E694017F003B
:1002330050027F01EF7003C2B022D2B0221202D16A
:100243001202B71200531202D81201E91200661209
:1002530001581200FA1200161202C812026380EC4F
:10026300C37813E6940118E694004013780FE67000
:100273000E4387020000000000000000000000227F
:10028300C0E0C0D075D000C000300308780B06E68C
:1002930018700106D201D000D0D0D0E0327D597C55
:1002A30003ED1D70011C144C70F7EF1F70011E1439
:1002B3004E70EA22758900758E80758A48758CF4B4
:1002C300D28CD2A922300003D2B522C2B52275B195
:1002D3001475B22A22C288D2A8D2B822BC000BBE9F
:1002E3000029EF8DF084FFADF022E4CCF875F0081F
:1002F300EF2FFFEE33FEEC33FCEE9DEC984005FC54
:10030300EE9DFE0FD5F0E9E4CEFD22EDF8F5F0EE1B
:100313008420D21CFEADF075F008EF2FFFED33FD06
:100323004007985006D5F0F222C398FD0FD5F0EAA6
:0D03330022787FE4F6D8FD7581200202409B
:00000001FF
