:080000000203690201E732323C
:03000B000202B43A
:10001300020006781BE614601014602514602F1488
:10002300603824047036C2B1227815E6FE08E6FF74
:100033007C007D14120314ED4C7003D2B122C2B1C3
:10004300227816E654077003D2B122C2B122781681
:0D005300E620E003D2B122C2B122D2B122D8
:10006300020007780FE614602414603814604E14FD
:10007300606424047079C2B3E4781BF643B110536F
:10008300B2EF43B12053B2DF7814F6806212024913
:10009300D2B343B11053B2EF43B12053B2DF78145C
:1000A3007601804B120249D2B343B12053B2DF53DE
:1000B300B1EF43B210C2B47814760280321202490F
:1000C300D2B343B11053B2EF53B1DF43B220C2B541
:1000D300781476038019D2B312024953B1EF43B2B5
:1000E3001053B1DF43B220C2B4C2B578147604789A
:1000F30014E6780FF622D3780BE694C818E694003A
:1001030050022188780E06E6D394044002E4F67880
:100113000EE614601614602314603014603D24044A
:100123007047E4781BF6780FF6803EE47808F6080B
:10013300F6781B7601780F7601802EE47808F608AE
:10014300F6781B7602780F7602801EE47808F608AC
:10015300F6781B7603780F7603800EE47808F608AA
:10016300F6781B7604780F7604E47815F608F678AB
:1001730010F608F608F608F6C203780AF608F67FC2
:10018300FAFE1202D12230015A781806E6187001DD
:1001930006C201C37818E6940418E69400400CE400
:1001A300F608F6781606E618700106C37816E69484
:1001B300E818E694034014E4F608F6780906E6180E
:1001C300700106781106E618700106C37811E694EB
:1001D3003C18E69400400CE4F608F6781306E6189B
:1001E30070010622C0D075D000C00020032730B2B2
:1001F300247817760008760078157600087600785C
:10020300107600087600087600087600780A7600F3
:10021300087600D203D000D0D032E4780FF6780EFF
:10022300F6780CF608F67817F608F67815F608F659
:100233007810F608F67812F608F6C203780AF6087C
:10024300F6C201D2AF227808E6FE08E6FF7C007D05
:1002530014120314ED4C7016C37816E694F418E6E2
:1002630094017F0050027F01EF7003C2B022D2B02D
:10027300221203061202E81202F912030D12021DE2
:100283001200F912006612018912001612029480FC
:10029300EFC37813E6940118E694004013780FE651
:1002A300700E438702000000000000000000000001
:1002B30022C0E0C0D075D000C000300308780B0620
:1002C300E618700106D201D000D0D0D0E0327D59BB
:1002D3007C03ED1D70011C144C70F7EF1F70011EA1
:1002E300144E70EA22758900758E80758A48758C64
:1002F300F4D28CD2A92275D75A75D6FF438E1043F8
:10030300AF042275B10475B21A22C288D2A8D2B83A
:1003130022BC000BBE0029EF8DF084FFADF022E478
:10032300CCF875F008EF2FFFEE33FEEC33FCEE9DB7
:10033300EC984005FCEE9DFE0FD5F0E9E4CEFD22DE
:10034300EDF8F5F0EE8420D21CFEADF075F008EF69
:100353002FFFED33FD4007985006D5F0F222C398E6
:10036300FD0FD5F0EA22787FE4F6D8FD75812002EF
:02037300027412
:00000001FF
