:0700000002036F02025032FF
:03000B0002022EC0
:10001300020006D37809E694C818E69400404078B5
:100023000C06E6D394024002E4F6780CE614600D65
:100033001460102402701FE4780DF68019780D7691
:10004300018013E47813F608F6780EF608F608F63E
:1000530008F6780D7602E4781DF67808F608F6229D
:100063000201AF780DE614601F146041146064143C
:100073007002210E240460022135E47815F6781C01
:10008300F67818F6781A213143B12053B2DF30B530
:1000930006781576018004E47815F6781A760178E7
:1000A3001C7601E47818F6781276012135781A76F1
:1000B30002781C76027818760178157601D37811C8
:1000C300E6940418E694007812400476038063767D
:1000D30002805F781A7602E4781CF6781876017845
:1000E300157601D37811E6940518E694004016E4DA
:1000F3007816F608F67813F608F6780EF608F6780A
:10010300127604802D781276038027781B76017F80
:10011300FA7E001202B0E4781BF67FFAFE1202B0F8
:10012300781B76017FFA7E001202B0E4781BF67822
:1001330012F67812E6780DF6227819E6B4013C78C7
:100143001406E618700106E47819F6C37814E694E9
:10015300E818E69403400CE4F608F6780F06E61870
:10016300700106C3780FE6943C18E69400400CE453
:10017300F608F6781106E61870010622C2B4E47890
:100183000DF6780CF6780AF608F67816F608F6787F
:1001930013F608F6780EF608F67810F608F6781DCA
:1001A300F67808F608F67819F6D2AF22C0E0C0D088
:1001B30075D000C000781BE6B4010F53B1FD43B204
:1001C30002B2B0A2B0B392B1800643B10253B2FD02
:1001D300D000D0D0D0E032781CE614600A14601F3F
:1001E3002402701DC2B322780EE6FE08E6FF7C00EF
:1001F3007D0312031AED4C7003D2B322C2B322D291
:10020300B32212030C1202EE1202FF1203131201A5
:100213007F12001612006612013C1202DC1202C7A2
:100223001202911202711201DA80E6C0E0C0D075A9
:10023300D000C000781DE6B40108780906E61870FE
:10024300010678197601D000D0D0D0E032C0E0C0EA
:10025300D075D000C000781DE6700C30B209780864
:10026300F608F6781D7601D000D0D0D0E032D378EE
:1002730009E6940018E69400400F08E694C818E6CF
:1002830094005005781B760122E4781BF622781A35
:10029300E614600A14600A24027011C2B122D2B1BA
:1002A30022780FE620E003D2B122C2B1227D597C2D
:1002B30003ED1D70011C144C70F7EF1F70011E1429
:1002C3004E70EA227818E6B4010C7814E620E003B5
:1002D300C2B422D2B422C2B42253B1DF53B2DF7804
:1002E30015E6B40103D2B522C2B522758900758E15
:1002F30080758A20758CD1D28CD2A92275D70675C8
:10030300D6FF438E1043AF042275B12475B2132276
:10031300C288D2A8D2B822BC000BBE0029EF8DF050
:1003230084FFADF022E4CCF875F008EF2FFFEE3335
:10033300FEEC33FCEE9DEC984005FCEE9DFE0FD5E4
:10034300F0E9E4CEFD22EDF8F5F0EE8420D21CFEB8
:10035300ADF075F008EF2FFFED33FD400798500621
:10036300D5F0F222C398FD0FD5F0EA22787FE4F6A8
:08037300D8FD75811D02020591
:00000001FF
