:0600000002048902001653
:03000B000203A647
:1000130002026BC0D075D000C00020062930B22682
:100023007814760008760078127600087600780D4A
:100033007600087600087600087600D20178087604
:1000430000087600D206D000D0D03230040C7815E8
:0D005300E620E003C2B422D2B422C2B422DF
:100063000203EB780CE6146022146033146054141A
:100073006075147002212024056002214AD2B0C2A7
:1000830000E4781BF6C20418F62147120362781ABB
:100093007601E408F6C204D20078117601214A12EF
:1000A3000362781A7601087602D204D200C378106C
:1000B300E6940518E69400781140047603214A7605
:1000C30002214A120362781A7602087602C204D227
:1000D30000C37810E6940A18E69400781140047679
:1000E30004806476038060120362781A7602E4085F
:1000F300F6C204D200C37810E6940F18E6940040C9
:1001030016E47818F608F67812F608F6780DF6086D
:10011300F678117605803078117604802AD2077F2D
:10012300FA7E001203C3C2077FFA7E001203C3D212
:10013300077FFA7E001203C3C207C2B27FF47E01B7
:100143001203C3E47811F67811E6780CF622300630
:1001530073D37809E694C818E69400406730012DFC
:10016300781606E6D394014002E4F67816E61460A6
:100173000904700AE4780CF68004780C7601E478BC
:1001830017F67808F608F6C201C202C20630022D3D
:10019300781706E6D394014002E4F67817E6146074
:1001A3000904700AE4780CF68004780C7602E4788B
:1001B30016F67808F608F6C201C202C2067FFA7E76
:1001C300001203C37812E6FE08E6FF7C007D64128A
:1001D3000434C3ED940AEC94005024C2B343B10831
:1001E30053B2F77812E6FE08E6FF7C007D64120442
:1001F30034D3ED9405EC94004017D2AAD2A822C2BE
:10020300AAC2A853B1F743B208300303D2B322C240
:10021300B322300552781506E618700106C205C3ED
:100223007815E6940418E69400400CE4F608F67892
:100233001306E618700106C37813E694E818E694EB
:1002430003400CE4F608F6780E06E618700106C3C0
:10025300780EE6943C18E69400400CE4F608F67831
:100263001006E61870010622C0D075D000C0002029
:10027300062930B3267814760008760078127600C3
:10028300087600780D760008760008760008760078
:10029300D20278087600087600D206D000D0D03299
:1002A300C37810E6940118E694004027780CE670B2
:1002B30022D2AAD2A8C2B2C2B343B10853B2F743FF
:1002C300B10453B2FB4387020000000000000000AA
:1002D30000000022C2B4E4780CF67816F6780AF629
:1002E30008F67818F608F67814F608F67812F60881
:1002F300F6780DF608F6780FF608F6C2067808F6D3
:1003030008F6C205D2AF2212042D1203DA12040931
:100313001204161202D712015112006612021512AC
:1003230003FA12004E12038412042312033612023C
:10033300A380E3781BE614600A1460202402701E75
:10034300C20322780EE6540324FE600A14600A24D2
:1003530002700BD20322D20322C20322D20322430E
:10036300B12053B2DF20B516C37813E694F418E630
:1003730094017F0050027F01EF7003C2B022D2B01C
:100383002220071E781AE614600A14600A240270F9
:1003930011D2B122C2B122780EE620E003D2B122FB
:1003A300C2B122C0E0C0D075D000C00030060878CA
:1003B3000906E618700106D205D000D0D0D0E0328D
:1003C3007D597C03ED1D70011C144C70F7EF1F70F9
:1003D300011E144E70EA22758900758E80758A4855
:1003E300758CF4D28CD2A92230070953B1FB43B2E6
:1003F30004B2B232C2B23253B1DF53B2DF300003C0
:10040300D2B522C2B52275D75A75D6FF438E104393
:10041300AF0422C288D2A8D2B8C28AD2AAD2BA2240
:1004230020070643B10453B2FB2275B10D75B21315
:1004330022BC000BBE0029EF8DF084FFADF022E457
:10044300CCF875F008EF2FFFEE33FEEC33FCEE9D96
:10045300EC984005FCEE9DFE0FD5F0E9E4CEFD22BD
:10046300EDF8F5F0EE8420D21CFEADF075F008EF48
:100473002FFFED33FD4007985006D5F0F222C398C5
:10048300FD0FD5F0EA22787FE4F6D8FD75812002CE
:02049300030A5A
:00000001FF
