:090000000202CA0201A022323200
:03000B0002025C92
:1000130002000720043F781BE614600C14600B14E5
:1000230060112403702F8027801C53B1FD43B2025B
:10003300C2B122C37816E694F418E694017F005007
:10004300027F01EF700953B1FD43B202D2B12243E3
:0D005300B10253B2FD2275B10D75B233221A
:10006300020008D37809E694C818E694004063D3E5
:1000730008E694B818E6940B401130B20EE4780DFC
:10008300F618F67808F608F6C20322C37809E69450
:10009300B818E6940B503B20B238780C06E694026D
:1000A3004002E4F6780CE614600D1460102402702C
:1000B30010E4780DF6800A780D76028004780D76C8
:1000C30001C2A8C2037FC87E00120279E47808F651
:1000D30008F622300262781806E618700106C2029A
:1000E300C37818E6940418E69400400CE4F608F686
:1000F300781606E618700106C37816E694E818E643
:100103009403400CE4F608F6780F06E6187001062F
:10011300C3780FE6943C18E69400400CE4F608F626
:10012300781106E618700106C37811E6943C18E6C8
:1001330094004004E4F608F622780DE614601614E1
:10014300604024027050D2B0C200C201E4780CF6C1
:10015300781BF68028120006781B7602C200D201B3
:10016300C37811E6940518E694004009E4F608F60E
:100173007814F680047814760130B31AE47814F610
:100183008014120006781B7602D200C2017814761E
:100193000230B302E4F67814E6780DF622C0D07587
:1001A300D000C00020032730B224781776000876E9
:1001B3000078157600087600780E76000876000839
:1001C300760008760078087600087600D203D0001F
:1001D300D0D032C2B4C2B5C2B1E4780DF6780CF611
:1001E300780AF608F67817F608F67815F608F6781A
:1001F3000EF608F67810F608F6C2037808F608F645
:10020300C202D2AF22C37811E6940118E6940040EB
:1002130022780DE6701DC2B4C2B543B10253B2FDDC
:10022300D2B0780CF6438702000000000000000003
:10023300000000221200591202901202B21201D6DB
:1002430012006612013C1200D61202BF12001612EF
:1002530002A1120208D2A880E7C0E0C0D075D00086
:10026300C000300308780906E618700106D202D0F0
:1002730000D0D0D0E0327D597C03ED1D70011C14F9
:100283004C70F7EF1F70011E144E70EA227589003F
:10029300758E80758A48758CF4D28CD2A92253B19D
:1002A300DF43B220300005C2A8D2B522C2B522C2B4
:1002B30088D2A8D2B8D28AD2AAD2BA22300105C231
:1002C300A8D2B422C2B422787FE4F6D8FD75812087
:0302D300020237ED
:00000001FF
