:080000000203970200163232E0
:03000B000202F9F5
:10001300020006C0D075D000C00020032730B224F0
:100023007817760008760078157600087600781041
:100033007600087600087600087600780A760008CD
:100043007600D203D000D0D0327D597C03ED1D70F1
:10005300011C144C70F7EF1F70011E144E70EA223E
:10006300020007D3780BE694C818E69400500221E7
:1000730019D308E694B818E6940B401130B20EE495
:10008300780FF618F6780AF608F6C20322C3780B3F
:10009300E694B818E6940B507D20B27A780E06E603
:1000A30094044002E4F6780EE614601614601D14FE
:1000B300602A14603724047041E4781BF6780FF645
:1000C3008038781B7604780F7601802EE47808F662
:1000D30008F6781B7601780F7602801EE47808F61E
:1000E30008F6781B7602780F7603800EE47808F61C
:1000F30008F6781B7603780F7604E47815F608F68D
:100103007810F608F608F608F6C203780AF608F639
:100113007FFAFE12004C22780FE614602214603C32
:1001230014604C14605C2404706BC2B3E4781BF657
:10013300C2B3C2B443B12053B2DF7814F68056126F
:10014300028E7816E620E004D2B38002C2B3C2B4B2
:1001530043B12053B2DF78147601803912028ED274
:10016300B3C2B443B12053B2DF78147602802612AF
:10017300028ED2B3D2B443B12053B2DF78147603E4
:10018300801312028ED2B3D2B453B1DF43B220C272
:10019300B5781476047814E6780FF622781BE61403
:1001A300601414601A1460291460282404705143E5
:1001B300B10253B2FD2253B1FD43B202C2B1225385
:1001C300B1FD43B2027816E620E003D2B122C2B1F8
:1001D3002280257816E65403700A53B1FD43B20218
:1001E300C2B1800843B10253B2FDD2B1C37816E65F
:1001F300943218E69400500853B1FD43B202D2B1D1
:100203002230015A781806E618700106C201C37835
:1002130018E6940418E69400400CE4F608F6781601
:1002230006E618700106C37816E694E818E6940308
:100233004014E4F608F6780906E61870010678110A
:1002430006E618700106C37811E6943C18E694009C
:10025300400CE4F608F6781306E61870010622E46B
:10026300780FF6780EF6780CF608F67817F608F697
:100273007815F608F67810F608F67812F608F6C23E
:1002830003780AF608F6C201D2AF227808E6FE0820
:10029300E6FF7C007D14120342ED4C7016C3781602
:1002A300E694F418E694017F0050027F01EF700397
:1002B300C2B022D2B0221203341203161203271241
:1002C300033B12026212006612011A1202041201A7
:1002D3009F1202D980EFC37813E6940118E69400C5
:1002E3004013780FE6700E43870200000000000001
:1002F300000000000022C0E0C0D075D000C0003074
:100303000308780B06E618700106D201D000D0D09E
:10031300D0E032758900758E80758A48758CF4D269
:100323008CD2A92275D75A75D6FF438E1043AF04DA
:100333002275B10475B21A22C288D2A8D2B822BCDF
:10034300000BBE0029EF8DF084FFADF022E4CCF862
:1003530075F008EF2FFFEE33FEEC33FCEE9DEC98C7
:100363004005FCEE9DFE0FD5F0E9E4CEFD22EDF84D
:10037300F5F0EE8420D21CFEADF075F008EF2FFFF0
:10038300ED33FD4007985006D5F0F222C398FD0FD8
:10039300D5F0EA22787FE4F6D8FD7581200202B910
:00000001FF
