:080000000203410201D032327B
:03000B0002029D51
:10001300020006781BE6146011146017146026248E
:1000230003702A43B10253B2FD2253B1FD43B2021E
:10003300C2B12253B1FD43B2027816E620E003D2E7
:10004300B122C2B12253B1FD43B202D2B1227589AA
:0F00530000758E80758A48758CF4D28CD2A922E4
:10006300020007D3780BE694C818E69400500221E7
:100073000CD308E694B818E6940B401130B20EE4A2
:10008300780FF618F6780AF608F6C20322C3780B3F
:10009300E694B818E6940B507020B26D780E06E61D
:1000A30094034002E4F6780EE614601314602014FF
:1000B300602D24037037E4781BF6780FF6802EE466
:1000C3007808F608F6781B7601780F7601801EE42F
:1000D3007808F608F6781B7602780F7602800EE42D
:1000E3007808F608F6781B7603780F7603E478151C
:1000F300F608F67810F608F608F608F6C203780A4A
:10010300F608F67FFAFE1202BA22780FE614601F91
:1001130014602F14603F2403704EC2B3E4781BF6BF
:10012300C2B3C2B443B12053B2DF7814F68039129C
:100133000232D2B3C2B443B12053B2DF7814760192
:100143008026120232D2B3D2B443B12053B2DF7845
:100153001476028013120232D2B3D2B453B1DF4306
:10016300B220C2B5781476037814E6780FF62230FD
:10017300015A781806E618700106C201C37818E61A
:10018300940418E69400400CE4F608F6781606E6A4
:1001930018700106C37816E694E818E69403401431
:1001A300E4F608F6780906E618700106781106E603
:1001B30018700106C37811E6943C18E69400400CCD
:1001C300E4F608F6781306E61870010622C0D07527
:1001D300D000C00020032730B224781776000876B9
:1001E3000078157600087600781076000876000807
:1001F3007600087600780A7600087600D203D000ED
:10020300D0D032E4780FF6780EF6780CF608F6784C
:1002130017F608F67815F608F67810F608F6781249
:10022300F608F6C203780AF608F6C201D2AF2278BE
:1002330008E6FE08E6FF7C007D141202ECED4C702C
:1002430016C37816E694F418E694017F0050027FF3
:1002530001EF7003C2B022D2B0221202DE120051AB
:100263001202D11202E512020612006612010D12E9
:10027300017212001612027D80EFC37813E6940117
:1002830018E694004013780FE6700E4387020000CF
:1002930000000000000000000022C0E0C0D075D0C4
:1002A30000C000300308780B06E618700106D2017F
:1002B300D000D0D0D0E0327D597C03ED1D70011CFD
:1002C300144C70F7EF1F70011E144E70EA2275D79D
:1002D3005A75D6FF438E1043AF042275B10475B22D
:1002E3001A22C288D2A8D2B822BC000BBE0029EFC2
:1002F3008DF084FFADF022E4CCF875F008EF2FFF0A
:10030300EE33FEEC33FCEE9DEC984005FCEE9DFED7
:100313000FD5F0E9E4CEFD22EDF8F5F0EE8420D21E
:100323001CFEADF075F008EF2FFFED33FD4007988D
:100333005006D5F0F222C398FD0FD5F0EA22787F5C
:0A034300E4F6D8FD75812002025D8A
:00000001FF
