:0600000002047E0200165E
:03000B0002039B52
:10001300020260C0D075D000C00020062930B2268D
:100023007814760008760078127600087600780D4A
:100033007600087600087600087600D20178087604
:1000430000087600D206D000D0D03230040C7815E8
:0D005300E620E003C2B422D2B422C2B422DF
:100063000203E0780CE61460221460331460541425
:100073006075147002212024056002214AD2B0C2A7
:1000830000E4781BF6C20418F62147120357781AC6
:100093007601E408F6C204D20078117601214A12EF
:1000A3000357E4781AF6087602D204D200C3781014
:1000B300E6940518E69400781140047603214A7605
:1000C30002214A120357781A7602087602C204D232
:1000D30000C37810E6940A18E69400781140047679
:1000E30004806476038060120357781A7602E4086A
:1000F300F6C204D200C37810E6940F18E6940040C9
:1001030016E47818F608F67812F608F6780DF6086D
:10011300F678117605803078117604802AD2077F2D
:10012300FA7E001203B8C2077FFA7E001203B8D228
:10013300077FFA7E001203B8C207C2B27FF47E01C2
:100143001203B8E47811F67811E6780CF62230063B
:1001530068D37809E694C818E69400405C3001221D
:10016300781606E6D394014002E4F67816E61460A6
:100173000904700AE4780CF68004780C7601E478BC
:1001830017F6300222781706E6D394014002E4F60C
:100193007817E614600904700AE4780CF680047892
:1001A3000C7602E47816F6C201C202C206E47808AD
:1001B300F608F67FFAFE1203B87812E6FE08E6FFA9
:1001C3007C007D64120429C3ED940AEC940050244E
:1001D300C2B343B10853B2F77812E6FE08E6FF7CD8
:1001E300007D64120429D3ED9405EC94004017D2EA
:1001F300AAD2A822C2AAC2A853B1F743B2083003B5
:1002030003D2B322C2B322300552781506E6187022
:100213000106C205C37815E6940418E69400400C61
:10022300E4F608F6781306E618700106C37813E6B9
:1002330094E818E69403400CE4F608F6780E06E614
:1002430018700106C3780EE6943C18E69400400C3F
:10025300E4F608F6781006E61870010622C0D07599
:10026300D000C00020062930B32678147600087623
:100273000078127600087600780D7600087600087C
:100283007600087600D20278087600087600D20657
:10029300D000D0D032C37810E6940118E694004021
:1002A30027780CE67022D2AAD2A8C2B2C2B343B155
:1002B3000853B2F743B10453B2FB43870200000073
:1002C300000000000000000022C2B4E4780CF678BD
:1002D30016F6780AF608F67818F608F67814F6088B
:1002E300F67812F608F6780DF608F6780FF608F6A3
:1002F300C2067808F608F6C205D2AF22120422120B
:1003030003CF1203FE12040B1202CC12015112008E
:100313006612020A1203EF12004E12037912041836
:1003230012032B12029880E3781BE614600A146010
:10033300202402701EC20322780EE6540324FE60BA
:100343000A14600A2402700BD20322D20322C203CE
:1003530022D2032243B12053B2DF20B516C3781350
:10036300E694F418E694017F0050027F01EF7003D6
:10037300C2B022D2B02220071E781AE614600A14F3
:10038300600A24027011D2B122C2B122780EE62093
:10039300E003D2B122C2B122C0E0C0D075D000C008
:1003A30000300608780906E618700106D205D00069
:1003B300D0D0D0E0327D597C03ED1D70011C144C6C
:1003C30070F7EF1F70011E144E70EA2275890075D5
:1003D3008E80758A48758CF4D28CD2A92230070995
:1003E30053B1FB43B204B2B232C2B23253B1DF53A0
:1003F300B2DF300003D2B522C2B52275D75A75D603
:10040300FF438E1043AF0422C288D2A8D2B8C28A57
:10041300D2AAD2BA2220070643B10453B2FB2275F3
:10042300B10D75B21322BC000BBE0029EF8DF08411
:10043300FFADF022E4CCF875F008EF2FFFEE33FEAA
:10044300EC33FCEE9DEC984005FCEE9DFE0FD5F0E1
:10045300E9E4CEFD22EDF8F5F0EE8420D21CFEADEA
:10046300F075F008EF2FFFED33FD4007985006D5E8
:10047300F0F222C398FD0FD5F0EA22787FE4F6D894
:07048300FD7581200202FF5C
:00000001FF
