:080000000202E402019D32320C
:03000B0002027975
:1000130002000620043F781BE614600C14601214DF
:1000230060112403702F802753B1FD43B202C2B184
:10003300228013C37816E694F418E694017F0050E7
:10004300027F01EF700953B1FD43B202D2B12243E3
:0F005300B10253B2FD22300003D2B522C2B52252
:10006300020007D37809E694C818E694004060D3E9
:1000730008E694B818E6940B401130B20EE4780DFC
:10008300F618F67808F608F6C20322C37809E69450
:10009300B818E6940B503820B235780C06E6940273
:1000A3004002E4F6780CE614600D1460102402702C
:1000B30010E4780DF6800A780D76028004780D76C8
:1000C30001C203E47808F608F67FFAFE12029622CC
:1000D300300262781806E618700106C202C3781867
:1000E300E6940418E69400400CE4F608F678160645
:1000F300E618700106C37816E694E818E694034000
:100103000CE4F608F6780F06E618700106C3780FBC
:10011300E6943C18E69400400CE4F608F6781106E1
:10012300E618700106C37811E6943C18E694004083
:1001330004E4F608F622780DE614601614604024F1
:10014300027050D2B0C200C201E4780CF6781BF6FC
:100153008028120257781B7602C200D201C378119D
:10016300E6940518E694004009E4F608F67814F6D8
:1001730080047814760130B31AE47814F6801412EC
:100183000257781B7602D200C2017814760230B38C
:1001930002E4F67814E6780DF622C0D075D000C0DC
:1001A3000020032730B224781776000876007815EC
:1001B3007600087600780E76000876000876000848
:1001C300760078087600087600D203D000D0D032CB
:1001D300C2B4C2B5C2B1E4780DF6780CF6780AF66B
:1001E30008F67817F608F67815F608F6780EF60886
:1001F300F67810F608F6C2037808F608F6C202D2BB
:10020300AF22C37811E6940118E694004022780DDA
:10021300E6701DC2B4C2B543B10253B2FDD2B07889
:100223000CF64387020000000000000000000000FD
:10023300221202DD1202BF1202D01201D312006693
:100243001201391200D31202AD1200161200591214
:10025300020580E943B12053B2DF20B516C37816F7
:10026300E694F418E694017F0050027F01EF7003D7
:10027300C2B022D2B022C0E0C0D075D000C00030DE
:100283000308780906E618700106D202D000D0D020
:10029300D0E0327D597C03ED1D70011C144C70F7C6
:1002A300EF1F70011E144E70EA2230010C7818E61D
:1002B30020E003C2B422D2B422C2B42275890075ED
:1002C3008E80758A48758CF4D28CD2A922C288D2CA
:1002D300A8D2B8D28AD2AAD2BA2275B10D75B233D6
:0D02E30022787FE4F6D8FD758120020234F8
:00000001FF
